:020000040800F2
:10000000A8130020790200088F2300081D22000891
:100010008D23000839060008CD31000800000000DB
:100020000000000000000000000000009D0100082A
:100030000B07000800000000F1010008E92B000890
:10004000930200089302000893020008930200083C
:10005000930200089302000893020008930200082C
:10006000930200089302000893020008930200081C
:10007000930200089302000893020008930200080C
:1000800093020008930200089302000893020008FC
:1000900093020008930200089302000893020008EC
:1000A0009302000893020008D92C0008930200086C
:1000B00093020008930200089302000893020008CC
:1000C00093020008930200089302000893020008BC
:1000D00093020008930200089302000893020008AC
:1000E000930200089302000893020008930200089C
:1000F000930200089302000893020008930200088C
:10010000930200089302000893020008930200087B
:10011000930200089302000893020008930200086B
:10012000930200089302000893020008930200085B
:10013000930200089302000893020008930200084B
:10014000930200089302000893020008930200083B
:10015000930200089302000893020008930200082B
:10016000930200089302000893020008930200081B
:100170009302000893020008000000000000000045
:100180009302000893020008DFF80CD000F0D6F9C3
:1001900000480047ED310008A81300202B4B1968D8
:1001A000086800F058B880F30988BFF36F8F4FF0EC
:1001B000000080F3118870470000000006480068C6
:1001C000006880F3088862B661B6BFF34F8FBFF353
:1001D0006F8F00DF00BF00BF08ED00E0DFF80C000C
:1001E000016841F470010160704700BF88ED00E0D4
:1001F000EFF30980BFF36F8F144B1A681EF0100FD6
:1002000008BF20ED108A20E9F04F106008B44FF0CD
:10021000500080F31188BFF34F8FBFF36F8F03F04F
:1002200013FC4FF0000080F3118808BC19680868BF
:1002300000F016B81EF0100F08BF00F016B880F3DB
:100240000988BFF36F8F704700BF00BF78000020A0
:10025000EFF30580704730C8B0E8C04FFFF7A3BF89
:1002600030C8B0E8C04FFFF7E5BFB0EC088AB0EC8B
:1002700008CAFFF7E4BF0000064880470648004769
:10028000FEE7FEE7FEE7FEE7FEE7FEE7FEE7FEE746
:10029000FEE7FEE7952C000889010008B5EEC00ACC
:1002A000F1EE10FA07D2DFED1E0AB4EEE00AF1EE2D
:1002B00010FAA8BF7047DFED1B0AB5EEC00A60EE6A
:1002C000200ABDEEE01A11EE100AF1EE10FA38BF66
:1002D000401E00EE100A1549F7EE001AB8EEC00AEB
:1002E00030EEC00ADFED100A60EE200ABCEEE00A34
:1002F00010EE100AC0F3080000EE100A01EB8000B7
:10030000B8EE400A90ED011A70EEC00A90ED000AB6
:1003100071EEE01A21EE800A00EE810A70470000BB
:10032000CD024CB483F9223E00000044E4410008B1
:100330002DE9F04F82B046685368019305884788DD
:100340004B88002000900888874201BFB2F800C0A7
:100350006545528893421EBF6FF0020002B000F064
:1003600085B89FED412A4FEA970EC7F3400B00BFB7
:10037000DDE9000202EB800A4A6898464FF0000966
:10038000B0EE420AB4465FEA0E0025D092ED001AA4
:10039000DCED001A02EB8302DCED010A01EE810ABA
:1003A00092ED001A02EB8302401ED2ED001A02EB1E
:1003B000830200EE810A9CED021ADCED030A0004C0
:1003C0000CF1100C000C01EE210A92ED001A02EB68
:1003D000830200EE810AD9D117F0030026D0ACF1D8
:1003E0000404A2EB830210F0010F08D002EB830299
:1003F000D4ED010A92ED001A241D00EE810A5FEA95
:100400000B0013D002EB830CD4ED010A9CED001A13
:1004100002EBC302401E00EE810AD4ED020A92ED07
:10042000001A04F1080400EE810AEBD109F1010081
:10043000AAEC010A1FFA80F9486800EB8902A8F1CA
:1004400001001FFA80F8B8F1000F99D1009806EB6F
:100450008706184480B20090681E05042D0C87D1D1
:1004600002B0002000F002B80000000030BCBDE87F
:10047000C08F2DE9F05F0546002092469B468846D6
:100480000646814640241BE0284641464746224610
:1004900000F044F853465A46C01A914110D3114611
:1004A0001846224600F02BF82D1A67EB01084F463C
:1004B00022460120002100F022F817EB00094E41EE
:1004C000201EA4F10104DFDC484631462A4643469B
:1004D00000F000B830BCBDE8C09F40EA01039B07B4
:1004E00003D009E008C9121F08C0042AFAD203E0A9
:1004F00011F8013B00F8013B521EF9D27047202A47
:1005000004DB203A00FA02F1002070479140C2F16A
:10051000200320FA03F3194390407047202A04DB9C
:10052000203A21FA02F00021704721FA02F3D0406C
:10053000C2F120029140084319467047064C074D0E
:1005400006E0E06840F0010394E8070098471034A3
:10055000AC42F6D3FFF71CFEF4490008144A000829
:1005600010B51C4C1A482060204600F050FE60BBBD
:1005700000F032F8022060604FF40001042091FA8C
:10058000A1F1A060B1FA81F10020491EC4E9030184
:100590006061A061204600F057FEB0B9204602F02D
:1005A00049F908B1042010BD01210A4802F0E0F821
:1005B00058B90121074802F05DF830B901206060A8
:1005C000044800F041FE0028EDD0012010BD0000DD
:1005D000001000A0B8020020154800B5016D87B0DA
:1005E00041F480710165016D01F480710591016B29
:1005F00041F480710163016B21F480710163C16C6E
:1006000041F01001C164C06C694600F01000059013
:100610004FF47C40009002200190002002900320C3
:1006200003900A200490034800F01CFB07B000BDB3
:100630000010024000100048FEE700001749884201
:1006400001D10020704715492031884201D1012095
:10065000704712494031884201D1022070470F494A
:100660006031884201D1032070470C4980318842B3
:1006700001D1042070470949A031884201D10520E9
:1006800070470649C031884201D1062070470349AE
:10069000E0318842D5D1072070470000006001405A
:1006A000426B0168002A0A6811D022F001020A6038
:1006B00001680A6842F400220A6001680A6842F090
:1006C00001020A6090F84C10032904D010E042F4B3
:1006D00000320A600CE0816B21B901680A6842F0BF
:1006E00002020A6090F8401001290AD001218164B9
:1006F00090F84C10012906D05FF0040180F84C10EE
:100700007047416CF3E70221F8E770472DE9F047A5
:1007100004464079002715460E46012809D04FF0BF
:10072000010984F80590022020713068042803D064
:1007300044E00220BDE8F0874FF003080DBB00F055
:1007400077FB074605E000BF00F072FBC01B0128E5
:100750000FD82068406B0004F6D4012000F073FA33
:100760002168B069086416E000F062FBC01B012834
:1007700007D9206940F00800206184F80480032034
:10078000D8E72068406B0028EEDB012000F05BFA20
:100790002168B06948642068816C40F2FF32AA4049
:1007A0009143F269AA40114381642068C16CFF2221
:1007B000AA409143326AAA401143C16430690128BA
:1007C00008D12268916B1F20A84081437069A8401E
:1007D000084390632268D06B0721A9408843B3681F
:1007E00031681943F3681943A9400143D163206874
:1007F00001684FF48042AA40914301602268116869
:1008000040F6FC70A84081437068A840084310601F
:1008100020680168C022AA409143016084F80490D6
:100820000020607186E770B5040003D020790025B0
:1008300010B105E0012070BD6571204600F008F898
:1008400002202071256101202071002070BD000070
:1008500000B500680C4987B0884213D10B48816D00
:1008600041F000518165806D694600F000500590AF
:100870003020009003200190002002904FF0904023
:1008800000F0F0F907B000BD007400400010024015
:1008900018B5046800940068104421B11430009029
:1008A0000360002018BD0830F9E730B54279012A0D
:1008B00012D0012242710223037103681D6802FAFB
:1008C00001F425431D60002901680B6806D0C3F3BD
:1008D00083430F2B0AD00DE0022030BDC3F3830306
:1008E0000F2B07D14B6843F0010302E04B6843F044
:1008F00002034B60027100214171084630BD0000C7
:1009000070B5040006D02068FFF798FE374D55F803
:10091000200008B1012070BD204600F06FF8344877
:100920000168491C016000683249012819D1324828
:10093000026822F0804202600268A3681A430260E3
:10094000026822F47F0202602279012A05D102683E
:10095000A38901EB03431A430260026842F000429C
:1009600002602068026822F4714202602268106806
:1009700023691843D4E905363343184310602068CF
:10098000026822F00F020260D4E9072002432068C7
:1009900003681A4302602068826822F45F02826062
:1009A00020688268636A1A43238D01EB03410A437E
:1009B00082602068416801F007014160E06A216BB4
:1009C000000240EAC101206842681143416020688A
:1009D000016841F080010160012084F83400206842
:1009E000FFF72CFE45F82040002070BD9802002043
:1009F000480000200000FFFF0060014000B51148E2
:100A000087B0416800291BD10168491C0160012998
:100A100008D10D48016E41F080710166006E00F052
:100A2000807005904FF4207000900220019000200B
:100A300002900390062004906946044800F012F9E1
:100A400007B000BD40000020001002400010004828
:100A500070B590F84C400023C4B1FF2C16D0046848
:100A600025680C4E3540256004686FF30F01012A9C
:100A7000256804D045EA01212160026307E04FF4B4
:100A8000802646EA01210D432560F6E7012318463A
:100A900070BD0000FFFFFBF870B5040031D03C4989
:100AA0002068884205D1606801282AD0E0680128C2
:100AB00027D00125002065642063A56420652046B9
:100AC00000F06CF82068016821F400210160207AB0
:100AD00001282068016816D021F000510160607A79
:100AE00001282068016811D021F4001101602068FC
:100AF000016846F2087291430160E068022808D05C
:100B00000CE0012070BD41F00051E7E741F4001115
:100B1000ECE720680168626911430160207C0128CC
:100B2000206801682ED021F010010160607C01284E
:100B30002068016829D021F0200101602068416906
:100B4000144A1140416120684169E269124B114326
:100B5000228C03EB0242636A5B1E1A43114341611C
:100B600060686063E068A063A069E063207C84F84B
:100B700040002068016841F00101016084F84C5098
:100B8000002070BD41F01001CFE741F02001D4E713
:100B90000061014000FF001C0000FFFF00B511488C
:100BA00087B0416800291BD10168491C01600129F7
:100BB00008D10D48016E41F080710166006E00F0B1
:100BC000807005904FF4207000900220019000206A
:100BD00002900390062004906946044800F042F811
:100BE00007B000BD40000020001002400010004887
:100BF00010B590F84C100024012904D0032902D02C
:100C00000124204610BDFFF74BFDFAE7C8B101688B
:100C10000A6822F00E020A6001680A6822F00102E6
:100C20000A6090F84410036C01F01C02012101FAE3
:100C300002F25A6080F82510002180F8241008463E
:100C400070470120704770B5044600F0F1F8054682
:100C5000601C00D0641C00F0EBF8401BA042FAD3EB
:100C600070BD00002DE9F84FDFF898B100234FF078
:100C7000010C4FF0030A4FF00F090BF1040EB9E01D
:100C80000CFA03F4224070D04D68022D01D0122DD1
:100C90000ED1DD0800EB8508D8F820505E07F70E6E
:100CA00009FA07F6B5430E69BE402E43C8F8206026
:100CB00007685E0091F804800AFA06F508F0030858
:100CC000AF4308FA06F848EA0708C0F800804F6802
:100CD000012F05D0022F03D0112F01D0122F13D1D5
:100CE000D0F80880CF6828EA0508B74047EA080727
:100CF0008760D0F804800F7928EA0408C7F300174A
:100D00009F4047EA08074760D1F804806FEA080768
:100D1000BF0706D1C76AA743C8F3C0049C403C4341
:100D2000C462C468AC438D68B5402543C5604C6857
:100D3000E4005ED5344C256E45F001052566246E31
:100D400023F0030504F001040094304C2E19B4681C
:100D50009D072F0F09FA07F5AC43B0F1904F05D06E
:100D60002B4DA84204D101251CE042E0002519E0EA
:100D7000284DA84201D1022514E0274DA84201D1F7
:100D800003250FE0254DA84201D104250AE0244D9A
:100D9000A84201D1052505E0224DA84201D1062532
:100DA00000E00725BD402543B560DBF800405D4607
:100DB0004E689443F60300D514432C60DEF80040DF
:100DC00075464E689443B60300D514432C600D4D10
:100DD00008352C684E689443F60200D514432C6005
:100DE000084D0C352C684E689443B60200D5144368
:100DF0002C605B1C0A6832FA03F57FF441AF00F007
:100E000013B800000004014000100240000001403F
:100E10000004004800080048000C0048001000488A
:100E2000001400480018004818BCBDE8E08F00001E
:100E300001480068704700004C000020024801682B
:100E4000491C0160704700004C00002010B50320D1
:100E500000F0AEF8002000F005F800F03DF80020AA
:100E600010BD000000B5014687B000221A2000F036
:100E70007FF81A2000F070F81348016E41F48021C9
:100E80000166006E05A900F480200690684600F017
:100E90005FFD00F093FD0D49B0FBF1F00D480C49EA
:100EA00001604FF4E171C1600A21416000210161DC
:100EB000816001F04EF810B1012007B000BD054877
:100EC00001F064F8F9E700000010024040420F0012
:100ED00000480140580200201E4808B5016E41F04C
:100EE00001010166016E01F001010091816D41F087
:100EF00080518165806D00F080500090032000F0EB
:100F000057F8002211466FF00B0000F031F8002274
:100F100011466FF00A0000F02BF8002211466FF026
:100F2000090000F025F800221146501F00F020F8BB
:100F300000221146101F00F01BF800220F21901E06
:100F400000F016F800220F21BDE80840501E00F006
:100F50000FB800000010024000F01F020121914074
:100F60004009800000F1E020C0F800117047000047
:100F7000F0B40E4B1B680C46C3F30223C3F1070504
:100F8000042D00D90425191D072901D2002300E0F2
:100F9000DB1E012606FA05F1491E214099409E40BC
:100FA000761E16403143F0BC01F0F2B90CED00E0C2
:100FB000064900F0070208684FF6FF03184040EAB0
:100FC0000220034A10430860704700000CED00E067
:100FD0000000FA051549B0F5007F0868C0F341200C
:100FE00009D0022805D0086820F4C06040F4806071
:100FF0000860002070470128FBD0086820F4C0601A
:1010000040F4007008600A480A4A0068B0FBF2F039
:101010003222504300E0401E10B14A695205FAD412
:1010200048694005E5D50320704700000070004086
:101030005000002040420F000248006800F4C060E9
:101040007047000000700040F8B504460025FFF727
:10105000EFFE064694F83900800736D5002084F864
:1010600038002068016849070BD5016821F00401A8
:101070000160606BFFF7CAFD18B1E06B40F004003F
:10108000E0632068016841F002010160206C00907B
:10109000334601220221204601F0F6FB050014D15F
:1010A00021680220C860206C009033460022202175
:1010B000204601F0E9FB050007D12068416921F0D5
:1010C00040614161012084F839002846F8BD0000E4
:1010D0002DE9F84F1E4615468A460446FFF7A8FE3E
:1010E000814694F8380001280ED0012784F8387022
:1010F00094F839004FF00008012807D05FF0020093
:1011000084F8388000F03AB80220FBE7C4F83C804D
:10111000422084F839004B460022202120460096C8
:1011200001F0B2FB0028EBD12168286888622168B1
:10113000686848622168A868C862206829690268EE
:1011400022F4400242F4800211430160E968CAF8C7
:1011500028104FF000625146204601F0DBF94B4663
:10116000012208212046009601F08EFB0028C7D1FD
:1011700022680821D16084F83970C1E718BCBDE845
:10118000E08F2DE9F84F17468B460446FFF750FED7
:10119000824694F8380001280ED0012684F8386081
:1011A00094F839004FF00008012807D0022584F890
:1011B0003880284600F028B80220FBE7C4F83C80BD
:1011C0004FF0020984F8399053460022202120462E
:1011D000009701F059FB0500E9D10022594620464D
:1011E00001F098F9DBF8240058B953460122022196
:1011F0002046009701F048FB0500D8D12168C1F8CE
:101200000C9084F83960D2E718BCBDE8E08F10B5C7
:10121000040015D094F83800012813D0012084F878
:1012200038002068016821F001010160204600F0CB
:1012300063F80020E06384F8390084F8380010BDBA
:10124000012010BD022010BDF8B50446FFF7F0FDE7
:1012500006465CB194F83800012809D0012784F8CB
:10126000387094F83900002520B10BE00120F8BD5A
:101270000220F8BD84F83850204600F03EF841F2D4
:101280008830206420680168A2686FF0FF0321F4B1
:10129000706103EB022211430160206C0090334621
:1012A00000222021204601F0EFFAE8B921680A68FF
:1012B0000F4B1A40237942EA0362E3681A430A603B
:1012C000D4E905121143226853680A4E3340268A36
:1012D00043EA06431943516021680A6842F001025B
:1012E0000A60E56384F8397084F83850F8BD00006E
:1012F000EFFFFF00FEF8E0FF704770472DE9F84F61
:1013000015460F460446FFF793FD82462068816923
:1013100094F8382000F12009012A0DD0012684F824
:10132000386094F839204FF00008012A06D00220D6
:1013300084F8388000F044B80220FBE7C4F83C8011
:10134000BFB3222284F839200269521C2263026949
:10135000521CE262A762426922F0406242F080625F
:101360004261206881610EE00621204601F08CFA7E
:10137000E0B999F80000A16A0870A06A401CA06258
:10138000206B401E2063206B53464FF001020095F6
:101390000028E9D14FF00201204601F075FA28B982
:1013A00021680220C8602046FFF74EFE84F83960AD
:1013B000BEE7FFE7E06B40F00800E0630120B7E71D
:1013C00018BCBDE8E08F00002DE9F84F15460F4628
:1013D0000446FFF72DFD8246206894F8381000F18E
:1013E000200901290ED0012684F8386094F83910BC
:1013F0004FF00008012907D05FF0020084F8388020
:1014000000F040B80220FBE7C4F83C809FB31221F3
:1014100084F839100169491C61620169491C216223
:10142000E761416921F0406141610EE004212046FD
:1014300001F02AFAE0B9E069017889F80010E06962
:10144000401CE061606A401E6062606A53464FF073
:10145000010200950028E9D14FF00201204601F079
:1014600013FA28B921680220C8602046FFF7ECFD76
:1014700084F83960C2E7FFE7E06B40F00800E06302
:101480000120BBE718BCBDE8E08F00002DE9F84F54
:10149000044600270088E54D3E46010504F1200B77
:1014A0001DD5606E78B1B0F5800F11D0B0F5000F8A
:1014B00004D0B0F5400F22D001270FE0E86840F4D7
:1014C0008030E8601BE00021201D01F035FA03E0C8
:1014D0000021584601F0C6FA070010D03E46208889
:1014E000C00426D5A06EC0B1B0F1807F1AD0B0F193
:1014F000007F0DD0B0F1407F19D0012718E0D5F85A
:101500008800616E20F440000843C5F88800E6E7D3
:10151000E86840F48030E86009E00021201D01F017
:101520000BFA03E00021584601F09CFA0746F7B198
:101530003E46206880033AD5A86D4FF00008C000F1
:1015400009D4A86D40F08050A865A86D4FF001083F
:1015500000F080500090DFF8D8A2DAF8001041F4D3
:101560008071CAF80010FFF763FC814610E0D5F8DF
:101570008800A16E20F040700843C5F88800D8E7C5
:10158000FFF756FCA0EB0900022801D9032705E06C
:10159000DAF80000C005F3D5002F7CD04FEA07062B
:1015A000B8F1000F03D0A86D20F08050A865207816
:1015B000C00707D0D5F88800A16B20F003000843CE
:1015C000C5F888002078800707D5D5F88800E16B3A
:1015D00020F00C000843C5F888002078400707D5A4
:1015E000D5F88800216C20F030000843C5F8880049
:1015F0002078000707D5D5F88800616C20F0C0007E
:101600000843C5F888002078C00607D5D5F88800BB
:10161000A16C20F440700843C5F88800207880064B
:1016200007D5D5F88800E16C20F440600843C5F880
:1016300088002088800507D5D5F88800E16D20F462
:1016400040200843C5F888002088400507D5D5F814
:101650008800216E20F440100843C5F888002078E7
:10166000400607D5D5F88800216D20F44050084386
:10167000C5F888002078000607D5D5F88800616D88
:1016800020F440400843C5F888002088C00509D5EB
:10169000D5F8880000E01CE0A16D20F4403008433C
:1016A000C5F8880020884FF0006780044FF08068FC
:1016B0004FD5D5F88800E16E20F040600843C5F8AA
:1016C0008800E06EB8423CD1E86840F48010E860E1
:1016D0003FE0D5F8900010F4407015D0D4F8841095
:1016E000814211D0D5F89000D5F8901020F44070C8
:1016F00041F48031C5F89010D5F8901021F4803174
:10170000C5F89010C5F89000C00710D0FFF790FB07
:10171000074641F2883906E0FFF78AFBC11B4945BD
:1017200001D903263CE7D5F890008007F4D5D5F819
:101730009000D4F8841020F440700843C5F890005D
:101740002EE7404505D10121201D01F0F5F800B13B
:1017500006462068000317D5D5F88800216F20F0D1
:1017600040600843C5F88800206FB84204D1E8689B
:1017700040F48010E86007E0404505D10121201DBC
:1017800001F0DAF800B106462068400317D5D5F815
:101790008800616F20F040600843C5F88800606FE2
:1017A000B84204D1E86840F48010E86007E04045A2
:1017B00005D10121201D01F0BFF800B106462088A7
:1017C00040041AD5D5F88800A16F20F04050084396
:1017D000C5F88800A06FB0F1805F03D0B0F1005F62
:1017E00005D00AE00221201D01F0A6F803E0022145
:1017F000584601F037F900B106462088000407D5A5
:10180000D5F88800E16F20F080400843C5F88800D3
:101810002068C00307D555F8880FD4F8801020F051
:10182000004008432860304600F004B80010024031
:101830000070004018BCBDE8E08F00002DE9F047C3
:101840000F46050058D03E4E306800F00700B84201
:1018500009D2306820F0070038433060306800F06B
:101860000700B84248D12878364CC0072CD06868A9
:10187000032811D0022812D0216898B14905002907
:101880003ADAA16821F003010143A160FFF7D0FA21
:10189000804641F2883910E021688901EFE721682C
:1018A0008903ECE78907EAE7FFF7C2FAA0EB080132
:1018B000494502D90320BDE8F087A068696800F0B7
:1018C0000C00B0EB810FEFD12878800705D5A06818
:1018D000A96820F0F0000843A060306800F007001D
:1018E000B8420BD9306820F00700384330603068C8
:1018F00000F00700B84201D00120DCE7287840075B
:1019000005D5A068E96820F4E0600843A060287865
:10191000000706D5A068296920F4605040EAC1009C
:10192000A06000F05BF8A168074AC1F30311515CA5
:10193000C840064908600020FFF794FA0020BAE783
:1019400000200240001002409C410008500000208E
:101950000F2202600C4A936803F00303436093680C
:1019600003F0F0038360936803F4E063C36092685C
:101970004FF4E06303EAD20202610448006800F019
:10198000070008607047000000100240002002407D
:1019900001480068704700005000002004480549D5
:1019A00000688968044AC1F30221515CC84070474D
:1019B0005000002000100240DC41000804480549A6
:1019C00000688968044AC1F3C221515CC84070476D
:1019D0005000002000100240DC41000830B52D49C5
:1019E000002318468A682C4C12F00C0F4FEA64054D
:1019F00014D08A68C2F38102032A04D1CA6802F0B3
:101A00000302012A0AD08A68C2F38102012A19D08E
:101A10008A68C2F38102022A16D016E00A68120709
:101A200004D4D1F89420C2F3032202E00A68C2F37E
:101A300003121A4B53F822308A6812F00C0F04D1AB
:101A4000184602E0204600E028468A68C2F3810278
:101A5000032A1DD1C868CA6800F00300C2F302124D
:101A6000521C022804D0032805D0B3FBF2F004E096
:101A7000B4FBF2F001E0B5FBF2F0CA68C968C2F34A
:101A800006225043C1F34161491C4900B0FBF1F00B
:101A900030BD0000001002400024F400AC410008FA
:101AA0002DE9F84304007DD02078FF4DC0065DD5B8
:101AB000A86810F00C0F0AD0A0690028286873D01D
:101AC00040F001002860FFF7B3F9064655E02868AA
:101AD000800702D5A0690028E5D0216A28680007A0
:101AE00003D5286800F0F00004E0D5F89400F02257
:101AF00002EA1010814216D9084601F037F8002892
:101B000050D1286840F0080028602868216A20F039
:101B1000F000084328606868E16920F47F4040EAEB
:101B20000120686015E0286840F0080028602868F7
:101B3000216A20F0F000084328606868E16920F419
:101B40007F4040EA01206860206A01F00FF8002819
:101B5000D6D1FFF743FFA968D44AC1F30311515C02
:101B6000C840D34908600020FFF77CF92CE000BF93
:101B7000FFF75EF9801B02287ED828688007F7D51A
:101B8000286840F0080028602868216A20F0F000EA
:101B9000084328606868E16920F47F4040EA01203A
:101BA000686011E0B2E0FFE720F001002860FFF775
:101BB0003FF9064605E000BFFFF73AF9801B02280F
:101BC000DAD828688007F7D42078C00748D0A868FA
:101BD000C0F3810002281DD0A868C0F3810003284B
:101BE00003D1E868C043800714D06068B0F5803F37
:101BF00017D0B0F5A02F286817D020F480302860C7
:101C0000286820F4802028606068E0B1FFF710F9B0
:101C1000064614E02868800322D56068002875D045
:101C20001EE0286840F48030EDE740F48020286012
:101C3000F7E700BFFFF7FCF8801B64289CD82868F2
:101C40008003F7D50CE0FFF7F3F8064605E000BF88
:101C5000FFF7EEF8801B64288ED828688003F7D43D
:101C60002078800742D5A868C0F38100012816D0EB
:101C7000A868C0F3810000E0A9E0032804D1E86867
:101C800000F0030002280AD0E068002828681DD070
:101C900040F480702860FFF7CBF806460BE0286818
:101CA00040050BD5E0680028B9D007E0FFF7C0F881
:101CB000801B022884D828684005F7D56868217CF5
:101CC00020F0F85040EA016068600FE020F4807076
:101CD0002860FFF7ADF8064605E000BFFFF7A8F85B
:101CE000801B022873D828684005F7D420780007A5
:101CF00029D560690028D5F8940013D040F0010080
:101D0000C5F89400FFF794F8064606E0FBE000BF34
:101D1000FFF78EF8801B022859D8D5F89400800769
:101D2000F6D510E020F00100C5F89400FFF780F828
:101D3000064604E0FFF77CF8801B022847D8D5F858
:101D400094008007F6D42078400763D5A86D00265C
:101D5000C00008D4A86D40F08050A865A86D012689
:101D600000F08050009053480168C90511D4016803
:101D7000804641F480710160FFF75AF8074604E09D
:101D8000FFF756F8C01B022821D8D8F80000C0057C
:101D9000F6D5A068012815D00528D5F8900017D0F1
:101DA00020F00100C5F89000D5F8900020F0040064
:101DB000C5F89000A06841F28838C8B1FFF738F83C
:101DC000074610E0D5F8900040F00100F0E777E01A
:101DD00040F00400C5F89000F4E700BFFFF728F8D2
:101DE000C11B41456CD8D5F890008007F6D50CE0B2
:101DF000FFF71EF8074604E0FFF71AF8C11B41453C
:101E000079D8D5F890008007F6D41EB1A86D20F0DF
:101E10008050A865A06AE0B3A968C1F381010329D5
:101E200072D00228286820F08070286011D02868BD
:101E3000000106D42868800003D4E86820F003007D
:101E4000E860E8681C490840E860FEF7F1FF0446D6
:101E500054E0FEF7EDFF064605E000BFFEF7E8FFA1
:101E6000801B022847D828688001F7D4206BE16ADC
:101E7000000110380843616BA26B0902120941EAA4
:101E800042410843A18F0D4A490802EB41510843E2
:101E900000E036E094F840104908120102EB41617D
:101EA0000843E86028680CE0001002409C410008EC
:101EB0005000002000700040FFFFEEFE0000E0FF39
:101EC00019E040F080702860E86840F08070E860B9
:101ED000FEF7AEFF044604E0FEF7AAFF001B02284F
:101EE00009D828688001F7D50BE000BFFEF7A0FFF6
:101EF000001B022802D90320BDE8F883286880016E
:101F0000F4D40020F8E7FFE70120F5E74FF0E021E7
:101F10000428086903D020F004000861704740F0ED
:101F20000400FAE710B5401EB0F1807F01D3012014
:101F300010BD4FF0E02460610F21601700F028FA17
:101F40000020A06107202061002010BD704770476D
:101F5000704710B5040003D094F83D0010B107E0BD
:101F6000012010BD002084F83C00204600F00CF851
:101F7000022084F83D00211D206800F0B3FE0120FE
:101F800084F83D00002010BD704700000168CA6859
:101F900042F00102CA600068826807490A40062AC6
:101FA00008D082680A40B2F5803F03D0016841F052
:101FB000010101600020704707000100704770B503
:101FC0000446006801694FF00005C943890715D42C
:101FD000C168C943890711D4E91E01610120207736
:101FE000206880698007204602D0FFF7E7FF04E001
:101FF00000F0A7F8204600F0A5F8257720680169D1
:10200000C943490717D4C168C943490713D46FF0BE
:1020100004010161022020772068806910F4407F6C
:10202000204602D0FFF7CAFF04E000F08AF82046FD
:1020300000F088F8257720680169C943090716D49C
:10204000C168C943090712D46FF008010161042077
:1020500020772068C0698007204602D0FFF7AEFFD6
:1020600004E000F06EF8204600F06CF82577206858
:102070000169C943C90617D4C168C943C90613D445
:102080006FF010010161082020772068C06910F40A
:10209000407F204602D0FFF791FF04E000F051F8A6
:1020A000204600F04FF8257720680169C943C90729
:1020B00008D1C168C943C90704D1891E01612046FE
:1020C00000F042F820680169C943090609D4C168D3
:1020D000C943090605D46FF0800101612046FFF76E
:1020E00036FF20680169C943C90509D4C168C943DD
:1020F000090605D46FF4807101612046FFF726FFC1
:1021000020680169C943490609D4C168C943490621
:1021100005D46FF040010161204600F023F82068EB
:102120000169C94389060BD4C168C943890607D42C
:102130006FF0200101612046BDE87040FFF708BF45
:1021400070BD704770470000044A012111600068AB
:102150000349884201D1FEF771BE7047000000209C
:1021600000480140704710B5040003D094F8710096
:1021700010B107E0012010BD002084F87000204657
:1021800000F026F8242084F871002068016821F00E
:1021900001010160204600F097FE0128EBD0606A43
:1021A00010B1204600F0FEFD2068416821F4904106
:1021B00041602068816821F02A01816020680168FF
:1021C00041F0010101602046BDE8104000F04EBE24
:1021D00000B500680E4987B0884216D10D48016EDF
:1021E00041F480410166006E694600F4804005902C
:1021F000C020009002200190002002900320039054
:10220000072004900448FEF72DFD07B000BD000034
:10221000003801400010024000040048FEE70000C2
:1022200010B511498AB00F4808600846FEF7FBFA5E
:1022300000B1FEE700240094019402940394224626
:10224000694609480494FEF761FA00B1FEE71022DE
:10225000694605480394FEF759FA002800D0FEE7C6
:102260000AB010BD00740040B40000202DE9F04712
:10227000344833490024C0E9001401250572447232
:10228000CE058027C661C0E90875FEF705FC00B1E0
:10229000FEE72C482A4954308031C0E90014057209
:1022A0004472C661C0E90875FEF7F6FB00B1FEE7AF
:1022B00024482349A830E03902C04E0600F8045BE8
:1022C0004FF0200940C08915E0E802944FF0040A5D
:1022D000E0E802411C4FE0E8025A4FF00D0880E8A8
:1022E000B0011848A830FEF70BFB00B1FEE7154817
:1022F0001349E030C03902C000F8045B40C0E0E898
:10230000039440F8044C10C0E0E8024A80E8B001B1
:102310000C48E030FEF7F4FA00B1FEE701220B4969
:102320000848FEF795FB00B1FEE706480122084980
:102330005430FEF78DFB002800D0FEE7BDE8F087A3
:1023400000610140C800002080FBFFFF0200010087
:10235000040002000C4810B50A4901604FF4E13155
:102360004160002181600C22C160C0E904128161DA
:10237000C16101624162FFF7F6FE002800D0FEE76E
:1023800010BD000000380140E0010020FEE770476A
:102390000907090E002806DA00F00F0000F1E0201E
:1023A00080F8141D704700F1E02080F80014704799
:1023B0003F4900252DED028B84B04868A1F1180437
:1023C000D0ED000A90ED010A30EE800A80EE801A0E
:1023D00080ED001A4868D0ED010A80EE801A80ED89
:1023E000011A20680128FCD10020206094ED010A28
:1023F000DFED308A60EE280A00EE105AB8EEC00A0F
:1024000060EE800A94ED030AB8EEC01A80EE810AED
:10241000FDF744FFF0EE400A94ED020AB0EE608A48
:1024200060EE280A00EE105AB8EEC00A60EE800A8C
:1024300094ED030AB8EEC01A80EE810AFDF72EFF74
:10244000B7EE001ADFED1C0A78EE011A30EE010A31
:102450001A48174A61EEA01A20EE200A0832CDED84
:10246000001A8DED010A00680290CDF80CD002A987
:102470000F48FDF75DFF0E4E0022083611467068CA
:1024800090ED000A0E48BCEEC00A10EE103AFEF7BE
:10249000FFF970680022102190ED010A0848BCEE97
:1024A000C00A10EE103AFEF7F3F96D1C99E7000030
:1024B00018000020DB0FC94000E0FF448041000805
:1024C000B400002000B595B04FF480700690052050
:1024D000009000204FF08072CDE9080205900122A3
:1024E000CDE90E0207900B900C900D90CDE91120D4
:1024F0001020109080040B4613900EAA69460448E1
:10250000FEF7E6FD002800D0012015B000BD000058
:10251000B8020020F0B54B6A4FF040652BB1AA42DB
:1025200003D08B6A04685B1E23618C690B6A002CE4
:1025300057D05BB304688B68E361CC69B4B1D1E96F
:102540000B3633434F6A4E6B3E4333438E8A43EA26
:1025500086430E6933430E6A3343CE6833432343C5
:102560008C6924E0006849688161F0BDD1E90B34D1
:1025700023434D6A4C6B2C4323438C8A43EA8443A8
:102580000C6923430C6A23438C6923E0CE69BEB1F6
:10259000D1E90B373B43D1F824C04F6B47EA0C0716
:1025A0003B438F8A43EA8743CF683B43334323430C
:1025B0000C682343046813436361AA42D2D1F0BD7F
:1025C000D1E90B352B434E6A4D6B35432B438D8A36
:1025D00043EA85430968234300680B43134343617F
:1025E000F0BD3BB304688B68E361CC6994B1D1E979
:1025F0000B3633434F6A4E6B3E4333438E8A43EA76
:1026000086430E6933430E6A3343CE683343234314
:102610008C69CEE7D1E90B3423434D6A4C6B2C43D4
:1026200023438C8A43EA84430C6923430C6A8969F7
:102630002343D1E7CC6964B1D1E90B3633434F6A08
:102640004E6B3E4333438E8A43EA8643CE68334320
:10265000AFE74B6A002BC3D0D1E90B452C434D6B40
:10266000898A1D432C43006844EA8141114341613A
:10267000F0BD00002DE9F04190B04FF4807006905D
:102680000520009000200C464FF080710125059038
:10269000CDE90801CDE90A5007900C9041F2883647
:1026A0000D90324669463148FEF76BFD00285BD13C
:1026B000B04632460EA92D48FEF720FE002853D121
:1026C000022715260A974246694628480096FEF7D3
:1026D00058FDE8BB42460DF139012448FEF70EFED5
:1026E000B0BB224800F0F4F890BB9DF83A00012CF2
:1026F0000FD020F0020000BF8DF83A0000950320B3
:102700000A904546424669461848FEF73AFDF8B930
:1027100002E040F00200EFE72A460EA91348FEF758
:1027200053FEA8B929461148FFF7CCFE80B90A9795
:102730002A4669460D480096FEF723FD40B92A4611
:102740000EA90A48FEF7DAFD10B99DF8390000E03D
:102750000AE0810703D4012C06D0800700D51CB104
:10276000002010B0BDE8F0810120FAE7B802002097
:10277000F0B58FB04FF480700690002005260D460E
:1027800000964FF0807101240590CDE90801CDE954
:102790000A4007900C9041F288370D903A466946FE
:1027A0002348FEF7EEFCE0BB3A460EA92048FEF7B0
:1027B000A5FDB0BB1E4800F08BF890BB9DF838001B
:1027C000012D0CD020F040008DF8380000943C46DC
:1027D0003A4669461648FEF7D4FC10BB02E040F0CA
:1027E0004000F1E722460EA91148FEF7EDFDC0B901
:1027F00021460F48FFF766FE98B9224669460C4805
:102800000096FEF7BEFC60B922460EA90848FEF706
:1028100075FD30B99DF83800400603D4012D05D070
:1028200001E003E015B100200FB0F0BD0120FBE78F
:10283000B802002010B58EB04FF48070069066206C
:102840000090002007900890099005900B900C9044
:1028500041F288340D90224669460A48FEF791FC01
:1028600068B999200090224669460648FEF789FC1F
:1028700028B921460348FFF725FE002800D0012093
:102880000EB010BDB80200202DE9F0419846164662
:102890000F460446069D08E0681C06D0FEF7C8FAFD
:1028A000A0EB0800A8420AD84DB1206880683840E3
:1028B00000D00120B042EFD10020BDE8F08104201B
:1028C00084F83900E06B40F00100E0630120F4E798
:1028D00030B595B000244FF4807006900620059422
:1028E0000794089441F28835009009940B940C9455
:1028F0002A4669460D940F48FEF743FCB0B9022002
:102900000E900F900120CDE911041020109080044A
:102910001390052000904FF0807009902B460EAA6E
:1029200069460448FEF7D4FB002800D0012015B00A
:1029300030BD0000B80200202DE9F041444C0546AE
:102940008846E0680026810728680DD0E16801F01C
:102950000301814216D1A8B1E0686968C0F3021092
:10296000401C88420ED120E0012804D0022805D066
:10297000032807D108E02168890701E0216849059B
:10298000002907DB01265FE02168890302D4216862
:102990004903F5E7E1686A686FF00F0321F07301FE
:1029A00003EB021211430143E160206820F08060D4
:1029B0002060FEF73DFA074605E000BFFEF738FA53
:1029C000C01B022837D820680001F7D4B8F1000FE7
:1029D00018D0B8F1010F1ED0287D4FF07E4140087D
:1029E00001EB4060A96840EA01202169194A1140C1
:1029F00008432061206840F080602060FEF718FAEC
:102A000007461AE0A868E9680002090940EA41405F
:102A10002169114AEBE7288A1049400801EB405030
:102A2000A96840EA012021690D4AE0E7FEF700FAB3
:102A3000C01B022801D9032606E020680001F5D555
:102A40002069A969084320613046BDE8F081000093
:102A500000100240FF80FFF9FF80FDFF0000E0FF53
:102A6000FF809FFF2DE9F0413D4C06468846E06817
:102A70000025810730680DD0E16801F00301814233
:102A800016D1A8B1E0687168C0F30210401C8842FA
:102A90000ED120E0012804D0022805D0032807D158
:102AA00008E02168890701E021684905002907DB62
:102AB000012551E02168890302D421684903F5E723
:102AC000E16872686FF00F0321F0730103EB0212EB
:102AD00011430143E160206820F080502060FEF740
:102AE000A7F9074605E000BFFEF7A2F9C01B0228C0
:102AF00029D820688000F7D4B8F1000F15D0307CB9
:102B00004FF07E41400801EB4060B16840EA01208F
:102B10006169144A114008436061206840F08050A8
:102B20002060FEF785F907460FE0B068F168000203
:102B3000090940EA414061690B4AEBE7FEF778F981
:102B4000C01B022801D9032506E020688000F5D5C6
:102B500060697169084360612846BDE8F081000042
:102B600000100240FF80FFF9FF80FDFFF8B51C4D0B
:102B700006460024A86DC00002D5FEF75DFA0DE000
:102B8000A86D40F08050A865A86D00F080500090BE
:102B9000FEF752FAA96D21F08051A965B0F5007FCA
:102BA00004D0802E07D94FF003040AE0802E08D904
:102BB000A02E01D804E001D1022402E0702E00D141
:102BC00001240848016821F00701214301600068E1
:102BD00000F00700A04201D00120F8BD0020F8BDA0
:102BE000001002400020024000F060BBF0B5B9B018
:102BF0001020012500242290CDE9285402266020CF
:102C0000CDE92C652A9028200727CDE92E50CDE963
:102C10003076329622A8FEF743FF00B1FEE70F2080
:102C200033900320CDE934043694042133A837943B
:102C3000FEF704FE00B1FEE715481994CDE9000542
:102C400020942020CDE90250C0020E94CDE9066008
:102C5000CDE904766846FEF719FC00B1FEE74FF4B3
:102C60000070FEF7B7F900B1FEE7FEF791FE4FF4F2
:102C70007A51B0FBF1F0FFF755F90420FFF746F960
:102C800000220F21501EFEF773F939B0F0BD00008D
:102C9000010801000D48016841F4700101600C4811
:102CA000016841F001010160002181600268094B67
:102CB0001A4002608214C260026822F4802202601C
:102CC00081610249C00380390860704788ED00E0E7
:102CD00000100240FFFFF6EA0148FFF770B900005C
:102CE000580200202DE9F0470268264B264D274E5A
:102CF000274F284C4FF0804A984209D0504507D0C2
:102D0000A84205D0B04203D0B84201D0A04204D1BD
:102D100022F0700C4A6842EA0C02DFF87CC0DFF84F
:102D20007C80DFF87C9098420FD050450DD0A842AF
:102D30000BD0B04209D0B84207D0A04205D06045C0
:102D400003D0404501D0484503D122F44075CA68FC
:102D50002A434D6922F080022A4302608A68C262D7
:102D60000A688262984207D0A04205D0604503D02D
:102D7000404501D0484501D1096901630121416104
:102D8000BDE8F087002C014000040040000800402E
:102D9000000C00400034014000400140004401406C
:102DA0000048014090F82410C90706D001684A681D
:102DB000836A22F400321A434A6090F8241089078B
:102DC00006D501684A68C36A22F480321A434A6011
:102DD00090F82410490706D501684A68036B22F46D
:102DE00080221A434A6090F82410090706D501682A
:102DF0004A68436B22F400421A434A6090F8241058
:102E0000C90606D501688A68836B22F480521A438A
:102E10008A6090F82410890606D501688A68C36B19
:102E200022F400521A438A6090F82410490611D502
:102E300001684A68036C22F480121A434A60016CEC
:102E4000B1F5801F06D101684A68436C22F4C002C4
:102E50001A434A6090F82410090606D501684A68AA
:102E6000806C22F4002202434A607047F8B50026C5
:102E700004464667FDF7DCFF0546206800686FF0F2
:102E80007E47000708D52B4600224FF4001120464C
:102E9000009700F069F960B92068006840070AD51A
:102EA0002B4600224FF480012046009700F05CF989
:102EB00008B10320F8BD202084F8710084F8720066
:102EC00084F870600020F8BD2DE9F04104460168E7
:102ED00080682369E6691843636910250027334336
:102EE0001843954A0B68954E334003430B602068A6
:102EF0004168E36821F44051194341602168A069A9
:102F0000914201D0236A18438B6823F43063034352
:102F10008B608B4B21688B4899420DD1D0F888008B
:102F200010F0030006D001285AD0022856D00328FA
:102F300059D157E0012556E0834B99420BD1D0F887
:102F4000880010F00C0047D0042849D0082845D04C
:102F50000C2848D146E07D4B99420BD1D0F888002F
:102F600010F0300038D010283AD0202836D0302841
:102F700039D137E0764B99420BD1D0F8880010F068
:102F8000C00029D040282BD0802827D0C0282AD1A3
:102F900028E0704B99420ED1D0F8880010F44070B0
:102FA0001AD0B0F5807F1BD0B0F5007F16D0B0F5F9
:102FB000407F18D116E0914215D1D0F8880010F466
:102FC000406009D0B0F5806F0AD0B0F5006F05D031
:102FD000B0F5406F07D105E0002504E0022502E0CE
:102FE000042500E008255C4B00264FF40040914288
:102FF0003DD135B1022D07D0042D07D0082D10D1B9
:1030000007E0FEF7CBFC03E0184602E0FEF7E6FC23
:10301000A8B3626802EB4201814202D8B0EB023FE2
:1030200001D9012775E0DFF834815DB1022D0CD0A4
:10303000042D13D0082DF4D150082905401846F16D
:10304000000105E0FEF7AAFC0AE050084449F5E754
:103050000023FDF70EFAA0F5407156E0FEF7BEFC26
:103060006268010E0302500818187141F0E7E16927
:103070004FF6EF7881422FD1092DD2D200E048E0FF
:10308000DFE805F006092005230505052600C8E749
:10309000FEF784FC01E0FEF791FC4100D4F8040047
:1030A00001EB5001B1FBF0F080B2A0F110014145FD
:1030B000B7D84FF6F0710140C0F3420001432068D9
:1030C000C16026E027496068EAE7FEF787FCE4E78D
:1030D0004FF480316068E3E7092DA2D2DFE805F004
:1030E00006091E052205050525009AE7FEF756FC90
:1030F00001E0FEF763FC0146606801EB500100BF90
:10310000B1FBF0F080B2A0F11001414589D82168EF
:10311000C860266638466666BDE8F081606803EBE5
:103120005001EDE7FEF75AFCE5E7616800EB51005E
:10313000B0FBF1F0E6E7000000800040F369FFEF2C
:1031400000380140001002400044004000480040A8
:10315000004C0040005000400024F400FFFC0F0031
:10316000000024F40048E8012DE9F0419846174694
:103170000E460446069D1DE0681C1BD02DB1FDF7D0
:1031800057FEA0EB0800A84214D92068016821F47A
:10319000D07101602068816821F0010181602020E8
:1031A00084F8710084F87200002084F87000032015
:1031B000BDE8F0812068C06936EA000004D0002034
:1031C000B842D9D00020F3E70120F9E7FEE702E09A
:1031D00008C8121F08C1002AFAD1704770470020A2
:1031E00001E001C1121F002AFBD1704788B0FDF732
:1031F0002DFEFFF7FBFC2248C16C41F00101C164C8
:10320000C16C01F001010691C16C41F01001C16473
:10321000C16C01F010010691C16C41F00201C16462
:10322000C06C00F002000690FFF794F8FFF71EF85C
:10323000FEF7F6FFFDF794F900211248FDF735FB84
:1032400010211048FDF731FB0E481430FDF7D0FC7B
:103250000C486830FDF7CCFC0020059005A800F074
:1032600022F8094C1422094960616846FDF735F9D6
:103270000021684600F024F8206100F00FF8FEE716
:1032800000100240B4000020000000208841000827
:1032900001460020842900D0C81C704710B500F0FA
:1032A00097FB002010BD012000F082BC10B500F09B
:1032B0000DFE012803D0BDE8104000F063BC10BD36
:1032C0003EB504460D46B0F90800FFF7E1FF02A93C
:1032D000CDE90001208A2B4682B2D4E9001000F02B
:1032E000C7FD012801D000203EBD02983EBD000070
:1032F0002DE9F041184C0F460546E6682068001D90
:1033000000F080FA38B9206890F82C10012088402D
:10331000216981432161681C07D137B12168BDE86B
:10332000F0410E48091D00F0A5BA20683544B542A9
:103330004560216805D2A06BBDE8F041091D00F091
:1033400081BA606B091D00F07DFAA06A854200D247
:10335000A562BDE8F081000078000020900F0020F9
:103360002DE9F041054600F091FA2E4CA068401C72
:10337000A06020682C4F10B1606940B32DE025603B
:10338000A068012829D1002606EB860007EB800003
:1033900000F04AFA761C072EF6D323488C3000F052
:1033A00043FA2148A03000F03FFA1F48B43000F043
:1033B0003BFA1D48C83000F037FA1B48DC3000F0FB
:1033C00033FA19488C3060631430A06305E020683C
:1033D000E96AC06A884200D82560606A401C606261
:1033E000E96A0120226988401043206101EB8100D5
:1033F00007EB8000291D00F03DFA00F067FA6069D4
:1034000000280CD02068E96AC06A884207D20749C0
:103410004FF080500860BFF34F8FBFF36F8FBDE850
:10342000F081000078000020B40E002004ED00E0E0
:1034300070B5114E114C17E000F0FEFA3068B8B1CB
:1034400000F03CFE00F022FAF068C568281D00F08C
:10345000D9F9A068401EA0606068401E606000F05E
:1034600035FA284600F042F860680028E4D170BDC3
:1034700000F024FEF8E700007C0F00207800002018
:103480002DE9F041856B174604460026026C82B197
:10349000C7B1E068FDF721F8E168206C091AE16026
:1034A0002268914202D26168081AE060022F16D0A9
:1034B00017E02068A8B9606800F07AFD0646002091
:1034C00060600EE0A068FDF708F8216CA068084471
:1034D000A0606168884204D32068A06001E005B163
:1034E0006D1E6D1CA5633046BDE8F08110B5044625
:1034F000006B00F0FFF92046BDE8104000F0FAB97B
:103500000F4840F6B831420705D0C01D0C4A20F0E4
:103510000700821A891A0B4A00230144C2E90003FA
:103520000839103A21F0070111604B600B600B1A4B
:10353000C0E9001393604FF000405360D0607047C3
:10354000FC02002064000020074C4FF08056074D1D
:10355000FFF76EFF20680128FAD92E60BFF34F8F66
:10356000BFF36F8FF4E70000B40E002004ED00E01D
:103570002DE9F0479A46DDE9098481466FF003039F
:10358000206B03EB82021044089D20F007067007B1
:1035900007D0502080F31188BFF34F8FBFF36F8F98
:1035A000FEE723180A5C83F834200A5C12B1401C41
:1035B0001028F6D3002784F84370072D00D3062582
:1035C000E562C4E91157201D00F039F904F1180033
:1035D00000F035F92461C5F107006462A061E76479
:1035E00084F8507052464946304600F0F5F82060A5
:1035F000B8F1000F01D0C8F80040BDE8F087000026
:1036000030B5114900E011460A688242FBD34B688D
:103610005C18844203D140681844486008464368F7
:103620001C18944209D1084C103C2468A24209D0CD
:1036300052681A4442600A6812680260814200D0EF
:10364000086030BD0460F9E7640000200648416B63
:10365000096829B1416BC968C968496881627047C6
:103660004FF0FF31FAE7000078000020084840687A
:10367000401C4FF0500080F3118804D0BFF34F8FEF
:10368000BFF36F8FFEE7BFF34F8FBFF36F8FFEE780
:103690006C0000202DE9F041044600F0F7F894F9A1
:1036A000455004F1240609E0606A48B1304600F054
:1036B000CBFC08B100F05CF96D1E6DB2002DF3DC9F
:1036C0004FF0FF3684F8456000F000F900F0DEF8B6
:1036D00094F9445004F1100709E0206948B13846D4
:1036E00000F0B2FC08B100F043F96D1E6DB2002D80
:1036F000F3DC84F84460BDE8F04100F0E7B8000076
:103700002DE9F0410546002700F096F9314E30686A
:1037100008B9FFF7F5FEF06805424BD1C5B308358F
:1037200068070ED005F00700C0F1080005446807DF
:1037300007D0502080F31188BFF34F8FBFF36F8FF6
:10374000FEE72DB37068854234D822481030014618
:103750000C6801E020460C466168A94202D221684B
:103760000029F7D131688C4224D0076821680160B4
:1037700060680837411B10290FD96019420708D02B
:10378000502080F31188BFF34F8FBFF36F8FFEE798
:1037900010E041606560FFF733FF61687068401AB0
:1037A0007060B268904200D2B060F06801430020BF
:1037B000C4E9000100F082FC780707D0502080F3B4
:1037C0001188BFF34F8FBFF36F8FFEE73846BDE818
:1037D000F08100005400002010B5031F4FF08074EA
:1037E0001C601B1F21F001011960191F044B0B60A5
:1037F00014390A60091F6FF0020244380A6010BDD4
:103800006D360008D0E9013201699A60D0E90123E0
:103810005A604A68824201D182684A60002202618D
:103820000868401E0860704700F108014FF0FF3241
:10383000C0E90112C16001610021016070470021EF
:103840000161704730B50B685A1C02D000F10802C4
:1038500002E0026904E02246546825689D42FAD9D4
:1038600053684B6099608A60516008610168491C27
:10387000016030BD42684A6093688B60936859600C
:10388000916008610168491C01607047502080F315
:103890001188BFF34F8FBFF36F8F0A494868401CF0
:1038A000486001280CD10848006810F0FF0F07D0CD
:1038B000502080F31188BFF34F8FBFF36F8FFEE767
:1038C000704700006C00002004ED00E008494868E3
:1038D00028B1401E486001D180F311887047502004
:1038E00080F31188BFF34F8FBFF36F8FFEE70000A7
:1038F0006C00002070B5002827D0144DA0F10804FA
:103900006168E868014207D1502080F31188BFF355
:103910004F8FBFF36F8FFEE722683AB1502080F3DC
:103920001188BFF34F8FBFF36F8FFEE78143616054
:1039300000F082F860686968084468602046FFF714
:103940005FFEBDE8704000F0B9BB70BD54000020C0
:1039500006484FF47A710068B0FBF1F14FF0E020B7
:10396000491E41610721016170470000500000209D
:1039700001490120C86170477800002010B50C464D
:1039800050B1094909681831FFF75CFF2046BDE8CE
:1039900010400121FFF7ACBC502080F31188BFF329
:1039A0004F8FBFF36F8FFEE77800002028B10749E3
:1039B0000A6A0260C96841607047502080F311882C
:1039C000BFF34F8FBFF36F8FFEE70000780000203A
:1039D0001CB515480024CDE900402346802213A1E0
:1039E000144800F045FA012809D0401C1AD1502093
:1039F00080F31188BFF34F8FBFF36F8FFEE7502026
:103A000080F31188BFF34F8FBFF36F8F06484FF0DD
:103A1000FF312C38816201214161C460BDE81C4046
:103A200000F040B81CBD0000A400002049444C45F3
:103A300000000000493500080248016B491C016381
:103A400070470000780000201448016B11B101217B
:103A5000C16170470021C1610169B1FA81F1C1F111
:103A60001F0101EB81020E4951F822306BB101EBCD
:103A7000820101F108034A6852684A609A4201D102
:103A800052684A60D16801607047502080F3118805
:103A9000BFF34F8FBFF36F8FFEE700007800002069
:103AA000B40E00201CB532480168324A914207D159
:103AB000502080F31188BFF34F8FBFF36F8FFEE765
:103AC00000682C49491E884207D1502080F3118894
:103AD000BFF34F8FBFF36F8FFEE727490878019040
:103AE000FF20087008788DF800009DF800009DF810
:103AF000002000F0F000904207D0502080F31188A1
:103B0000BFF34F8FBFF36F8FFEE79DF800001B4A96
:103B100000F0500010700720906005E09DF8003024
:103B20005B008DF80030401E9DF800301B06F5D478
:103B3000000200F4E0609060019808700C482030AA
:103B4000016841F470010160016841F07041016059
:103B5000FFF7FEFE00205060FCF740FB08480168BC
:103B600041F040410160FCF729FB00201CBD000032
:103B700000ED00E071C20F4100E400E06C000020A5
:103B800034EF00E010B5502080F31188BFF34F8F61
:103B9000BFF36F8F00F0A8F918B104494FF08050BF
:103BA0000860002080F3118810BD000004ED00E0E3
:103BB00010B502460021012000F00CF8041E07D0C9
:103BC0000021416001600B460A46C16000F06AF8BE
:103BD000204610BD70B50E46050013D0D6B105FBCA
:103BE00006F04830FFF78CFD040009D004F14801CD
:103BF00020468EB10160C0E90F56012100F00EF899
:103C0000204670BD502080F31188BFF34F8FBFF363
:103C10006F8FFEE70020E4E70060ECE770B50D462B
:103C2000040025D0FFF732FED4E90F20216802FB03
:103C3000001161600021A1632168A1600A46D4E9F6
:103C40000F01401E00FB0121E16021464FF0FF30D3
:103C500001F8440F487004F110008DB1FFF7E4FD46
:103C600004F12400FFF7E0FDFFF730FE012070BDF6
:103C7000502080F31188BFF34F8FBFF36F8FFEE7A3
:103C800021690029F0D000F0DFF90028ECD00449C8
:103C90004FF080500860BFF34F8FBFF36F8FE3E7A3
:103CA00004ED00E02DE9FF4782B01D468A464FF043
:103CB0000008040003D0BAF1000F08D011E0502032
:103CC00080F31188BFF34F8FBFF36F8FFEE7206C37
:103CD00038B1502080F31188BFF34F8FBFF36F8F3F
:103CE000FEE7022D0AD1E06B012807D0502080F3B7
:103CF0001188BFF34F8FBFF36F8FFEE700F0E6F838
:103D00003F4F4FF000094FF0805648B9049838B142
:103D1000502080F31188BFF34F8FBFF36F8FFEE702
:103D2000FFF7B4FDA06BE16B884207D3022D05D0ED
:103D30000498D0B1B8F1000F1AD01EE02A465146BF
:103D40002046FFF79DFB616A19B104F1240000F0E1
:103D50007BF920B13E60BFF34F8FBFF36F8FFFF74A
:103D6000B5FD012006B0BDE8F087FFF7AFFD22E00A
:103D70006846FFF71BFE4FF00108FFF7A7FDFFF7AE
:103D80005BFEFFF783FD94F94400401C01D184F8E9
:103D9000449094F94500401C01D184F84590FFF708
:103DA00095FD04A9684600F02DF830B12046FFF7D4
:103DB00071FC00F083F90020D4E7FFF767FDA06BEA
:103DC000E16B884213D1FFF781FD04F110000499E3
:103DD000FFF7D4FD2046FFF75DFC00F06FF90028E7
:103DE0009ED13E60BFF34F8FBFF36F8F98E7FFF711
:103DF0006DFD2046FFF74EFC00F060F990E70000F3
:103E000004ED00E070B50D46040019D005B3FFF7CE
:103E10003DFD164AD1682868431C0FD02368126AFA
:103E2000934202D062688A421AD96268891A814232
:103E300016D2401A28602046FFF7B8FD002410E093
:103E4000502080F31188BFF34F8FBFF36F8FFEE7D1
:103E5000502080F31188BFF34F8FBFF36F8FFEE7C1
:103E60000124FFF733FD204670BD000078000020DC
:103E70002DE9FF5F8346DDE90E87994616468A469F
:103E80009000FFF73DFC05001AD05420FFF738FCE6
:103E9000040012D025630021CDE90241CDE900875D
:103EA0004B46324651465846FFF762FB2046FFF725
:103EB00057FA012004B000F006B82846FFF71AFDB3
:103EC0004FF0FF30F6E730BCBDE8C09F05484169C0
:103ED00019B1006B18B10020704701207047022013
:103EE00070470000780000202DE9F0412E4C00279B
:103EF000206B40B1A069401CA061E06900B10127BE
:103F00003846BDE8F081E668761CE66013D1606B48
:103F1000006838B1502080F31188BFF34F8FBFF392
:103F20006F8FFEE7606BA16B6163A063206A401C2A
:103F30002062FFF78BFBA06ADFF87080864209D30E
:103F4000606B006880B1606BC068C5686868864255
:103F50000DD2A0622068C06A00EB800158F82100F1
:103F60000128CAD90127C8E74FF0FF30F1E7281D23
:103F7000FFF748FCA86A18B105F11800FFF742FCEA
:103F8000E86A0121226981401143216100EB80012F
:103F900008EB8100291DFFF76DFCE86A2168C96AFA
:103FA0008842CDD30127CBE778000020B40E002053
:103FB00070B504004FF0000140D0214D28688442C4
:103FC00007D0502080F31188BFF34F8FBFF36F8F5E
:103FD000FEE7A06C38B1401EA064636CE26A9A42AE
:103FE0002CD040B12AE0502080F31188BFF34F8FCE
:103FF000BFF36F8FFEE7201DFFF704FC114A01217C
:1040000050B9E06A00EB800352F8233023B92B69E2
:1040100001FA00F083432B61606CE062C0F107009D
:10402000A061E06A2B6981401943296100EB80009F
:1040300002EB8000211DFFF71DFC0121084670BD29
:1040400078000020B40E00202DE9F041C068C4685B
:10405000ACB104F118000746FFF7D4FB154D286BEF
:104060000126A0B139461448FFF704FCE06A29682C
:10407000C96A88421CD90120EE61BDE8F081502058
:1040800080F31188BFF34F8FBFF36F8FFEE7201DC2
:10409000FFF7B8FBE16A2A6906FA01F010432861CC
:1040A00001EB81000449B43901EB8000211DDBE7FD
:1040B0000020E2E778000020680F00202DE9F0479B
:1040C0002C4D00242746286B38B1FFF7DFFB286B07
:1040D000401E2863286B40B146E0502080F31188D1
:1040E000BFF34F8FBFF36F8FFEE7A968224E012009
:1040F000D1B3A6F1B40980463068E8B1F068C4686D
:1041000004F11800FFF77EFB201DFFF77BFBE06A40
:104110002A6908FA00F11143296100EB800109EBDB
:104120008100211DFFF7A6FBE06A2968C96A884261
:10413000E2D3C5F81C80DFE70CB1FFF787FAAC6962
:1041400044B14646FFF7D0FE00B1EE61641EF9D1DE
:104150000020A861E86938B10849012738070860DC
:10416000BFF34F8FBFF36F8FFFF7B0FB3846BDE84B
:10417000F087000078000020680F002004ED00E0C8
:104180000200010000000000E8490008B123000817
:10419000000000000000000080000000000000009F
:1041A000000000000102030406070809A0860100C0
:1041B000400D0300801A060000350C0040420F003D
:1041C00080841E0000093D0000127A000024F400E3
:1041D00000366E010048E801006CDC0200000000BF
:1041E0000102030400000000920E493CB10AC93CE0
:1041F0002BC3163D2EFB483D752B7B3D04A9963DF8
:1042000080B6AF3D36BDC83D2FBCE13D73B2FA3D2F
:1042100087CF093E8340163EB5AB223EA2102F3E0B
:10422000CF6E3B3EC2C5473E0115543E135C603E17
:104230007F9A6C3ECCCF783EC07D823E938E883E86
:10424000229A8E3E32A0943E86A09A3EE59AA03EE7
:10425000128FA63ED47CAC3EEF63B23E2A44B83EF9
:10426000491DBE3E15EFC33E53B9C93ECA7BCF3E82
:104270004136D53E80E8DA3E4F92E03E7533E63E69
:10428000BBCBEB3EEA5AF13ECBE0F63E275DFC3E6F
:10429000E4E7003F3D9C033F824B063F9BF5083F10
:1042A0006B9A0B3FDA390E3FCDD3103F2A68133F8C
:1042B000D9F6153FC07F183FC6021B3FD17F1D3F77
:1042C000CBF61F3F9967223F25D2243F5636273F22
:1042D0001594293F4AEB2B3FDE3B2E3FBB85303FF9
:1042E000C9C8323FF304353F233A373F4268393F6C
:1042F0003B8F3B3FF9AE3D3F67C73F3F70D8413FE3
:1043000001E2433F03E4453F65DE473F12D1493FA9
:10431000F8BB4B3F029F4D3F207A4F3F3D4D513FF1
:104320004918533F31DB543FE595563F5348583FBA
:104330006AF2593F1A945B3F532D5D3F05BE5E3FC5
:104340002146603F97C5613F5A3C633F59AA643F8D
:10435000880F663FD86B673F3CBF683FA7096A3F3D
:104360000C4B6B3F5E836C3F93B26D3F9ED86E3FAC
:1043700073F56F3F0809713F5213723F4714733F43
:10438000DD0B743F0BFA743FC6DE753F07BA763F0C
:10439000C58B773FF853783F9812793F9DC7793F97
:1043A00002737A3FBE147B3FCDAC7B3F283B7C3F02
:1043B000C9BF7C3FAC3A7D3FCCAB7D3F23137E3FF2
:1043C000B0707E3F6DC47E3F580E7F3F6D4E7F3F85
:1043D000AB847F3F0FB17F3F97D37F3F43EC7F3F5D
:1043E00011FB7F3F0000803F11FB7F3F43EC7F3F8D
:1043F00097D37F3F0FB17F3FAB847F3F6D4E7F3FB1
:10440000580E7F3F6DC47E3FB0707E3F23137E3FCA
:10441000CCAB7D3FAC3A7D3FC9BF7C3F283B7C3F66
:10442000CDAC7B3FBE147B3F02737A3F9DC7793F83
:104430009812793FF853783FC58B773F07BA763F9C
:10444000C6DE753F0BFA743FDD0B743F4714733FB4
:104450005213723F0809713F73F56F3F9ED86E3F4C
:1044600093B26D3F5E836C3F0C4B6B3FA7096A3F75
:104470003CBF683FD86B673F880F663F59AA643FCF
:104480005A3C633F97C5613F2146603F05BE5E3F92
:10449000532D5D3F1A945B3F6AF2593F5348583F92
:1044A000E595563F31DB543F4918533F3D4D513F51
:1044B000207A4F3F029F4D3FF8BB4B3F12D1493FFF
:1044C00065DE473F03E4453F01E2433F70D8413F8B
:1044D00067C73F3FF9AE3D3F3B8F3B3F4268393FA7
:1044E000233A373FF304353FC9C8323FBB85303FDD
:1044F000DE3B2E3F4AEB2B3F1594293F5636273F94
:1045000025D2243F9967223FCBF61F3FD17F1D3F25
:10451000C6021B3FC07F183FD9F6153F2A68133FDC
:10452000CDD3103FDA390E3F6B9A0B3F9BF5083F16
:10453000824B063F3D9C033FE4E7003F275DFC3E86
:10454000CBE0F63EEA5AF13EBBCBEB3E7533E63E9E
:104550004F92E03E80E8DA3E4136D53ECA7BCF3E00
:1045600053B9C93E15EFC33E491DBE3E2A44B83E6D
:10457000EF63B23ED47CAC3E128FA63EE59AA03EDD
:1045800086A09A3E32A0943E229A8E3E938E883E1A
:10459000C07D823ECCCF783E7F9A6C3E135C603EFD
:1045A0000115543EC2C5473ECF6E3B3EA2102F3E82
:1045B000B5AB223E8340163E87CF093E73B2FA3D2B
:1045C0002FBCE13D36BDC83D80B6AF3D04A9963D48
:1045D000752B7B3D2EFB483D2BC3163DB10AC93CD4
:1045E000920E493C00000000920E49BCB10AC9BCC1
:1045F0002BC316BD2EFB48BD752B7BBD04A996BDF4
:1046000080B6AFBD36BDC8BD2FBCE1BD73B2FABD2B
:1046100087CF09BE834016BEB5AB22BEA2102FBE07
:10462000CF6E3BBEC2C547BE011554BE135C60BE13
:104630007F9A6CBECCCF78BEC07D82BE938E88BE82
:10464000229A8EBE32A094BE86A09ABEE59AA0BEE3
:10465000128FA6BED47CACBEEF63B2BE2A44B8BEF5
:10466000491DBEBE15EFC3BE53B9C9BECA7BCFBE7E
:104670004136D5BE80E8DABE4F92E0BE7533E6BE65
:10468000BBCBEBBEEA5AF1BECBE0F6BE275DFCBE6B
:10469000E4E700BF3D9C03BF824B06BF9BF508BF0C
:1046A0006B9A0BBFDA390EBFCDD310BF2A6813BF88
:1046B000D9F615BFC07F18BFC6021BBFD17F1DBF73
:1046C000CBF61FBF996722BF25D224BF563627BF1E
:1046D000159429BF4AEB2BBFDE3B2EBFBB8530BFF5
:1046E000C9C832BFF30435BF233A37BF426839BF68
:1046F0003B8F3BBFF9AE3DBF67C73FBF70D841BFDF
:1047000001E243BF03E445BF65DE47BF12D149BFA5
:10471000F8BB4BBF029F4DBF207A4FBF3D4D51BFED
:10472000491853BF31DB54BFE59556BF534858BFB6
:104730006AF259BF1A945BBF532D5DBF05BE5EBFC1
:10474000214660BF97C561BF5A3C63BF59AA64BF89
:10475000880F66BFD86B67BF3CBF68BFA7096ABF39
:104760000C4B6BBF5E836CBF93B26DBF9ED86EBFA8
:1047700073F56FBF080971BF521372BF471473BF3F
:10478000DD0B74BF0BFA74BFC6DE75BF07BA76BF08
:10479000C58B77BFF85378BF981279BF9DC779BF93
:1047A00002737ABFBE147BBFCDAC7BBF283B7CBFFE
:1047B000C9BF7CBFAC3A7DBFCCAB7DBF23137EBFEE
:1047C000B0707EBF6DC47EBF580E7FBF6D4E7FBF81
:1047D000AB847FBF0FB17FBF97D37FBF43EC7FBF59
:1047E00011FB7FBF000080BF11FB7FBF43EC7FBF89
:1047F00097D37FBF0FB17FBFAB847FBF6D4E7FBFAD
:10480000580E7FBF6DC47EBFB0707EBF23137EBFC6
:10481000CCAB7DBFAC3A7DBFC9BF7CBF283B7CBF62
:10482000CDAC7BBFBE147BBF02737ABF9DC779BF7F
:10483000981279BFF85378BFC58B77BF07BA76BF98
:10484000C6DE75BF0BFA74BFDD0B74BF471473BFB0
:10485000521372BF080971BF73F56FBF9ED86EBF48
:1048600093B26DBF5E836CBF0C4B6BBFA7096ABF71
:104870003CBF68BFD86B67BF880F66BF59AA64BFCB
:104880005A3C63BF97C561BF214660BF05BE5EBF8E
:10489000532D5DBF1A945BBF6AF259BF534858BF8E
:1048A000E59556BF31DB54BF491853BF3D4D51BF4D
:1048B000207A4FBF029F4DBFF8BB4BBF12D149BFFB
:1048C00065DE47BF03E445BF01E243BF70D841BF87
:1048D00067C73FBFF9AE3DBF3B8F3BBF426839BFA3
:1048E000233A37BFF30435BFC9C832BFBB8530BFD9
:1048F000DE3B2EBF4AEB2BBF159429BF563627BF90
:1049000025D224BF996722BFCBF61FBFD17F1DBF21
:10491000C6021BBFC07F18BFD9F615BF2A6813BFD8
:10492000CDD310BFDA390EBF6B9A0BBF9BF508BF12
:10493000824B06BF3D9C03BFE4E700BF275DFCBE82
:10494000CBE0F6BEEA5AF1BEBBCBEBBE7533E6BE9A
:104950004F92E0BE80E8DABE4136D5BECA7BCFBEFC
:1049600053B9C9BE15EFC3BE491DBEBE2A44B8BE69
:10497000EF63B2BED47CACBE128FA6BEE59AA0BED9
:1049800086A09ABE32A094BE229A8EBE938E88BE16
:10499000C07D82BECCCF78BE7F9A6CBE135C60BEF9
:1049A000011554BEC2C547BECF6E3BBEA2102FBE7E
:1049B000B5AB22BE834016BE87CF09BE73B2FABD27
:1049C0002FBCE1BD36BDC8BD80B6AFBD04A996BD44
:1049D000752B7BBD2EFB48BD2BC316BDB10AC9BCD0
:1049E000920E49BC000000806F757470757454613C
:1049F000736B0000144A000800000020B40000009F
:104A0000CE310008C84A0008B4000020F4120000AB
:104A1000DE31000800000000A4D082430000C4433F
:104A2000803E0000000000000000000002000200C4
:104A30002800002002000100380000200000803F14
:104A400000000040000040400000804000000000E6
:104A50000000000000000000000000000000000056
:104A60000000000000093D00000000000000000000
:104A70000000000000000000000000000000000036
:104A800000000000AAAAAAAA00000000000000007E
:104A90000000000000000000000000000000000016
:104AA0000000000000000000000000000000000006
:104AB00000000000000000000000000000000000F6
:084AC0000000000000000000EE
:040000050800018965
:00000001FF
